{
  "_format": "hh-sol-artifact-1",
  "contractName": "VehicleRegistry",
  "sourceName": "blockchain/contracts/VehicleRegistry.sol",
  "abi": [
    {
      "inputs": [],
      "stateMutability": "nonpayable",
      "type": "constructor"
    },
    {
      "anonymous": false,
      "inputs": [
        {
          "indexed": true,
          "internalType": "address",
          "name": "owner",
          "type": "address"
        },
        {
          "indexed": false,
          "internalType": "string",
          "name": "plateNumber",
          "type": "string"
        },
        {
          "indexed": false,
          "internalType": "uint256",
          "name": "entryTimestamp",
          "type": "uint256"
        }
      ],
      "name": "VehicleEntered",
      "type": "event"
    },
    {
      "anonymous": false,
      "inputs": [
        {
          "indexed": true,
          "internalType": "address",
          "name": "owner",
          "type": "address"
        },
        {
          "indexed": false,
          "internalType": "string",
          "name": "plateNumber",
          "type": "string"
        },
        {
          "indexed": false,
          "internalType": "uint256",
          "name": "exitTimestamp",
          "type": "uint256"
        }
      ],
      "name": "VehicleExited",
      "type": "event"
    },
    {
      "inputs": [
        {
          "internalType": "string",
          "name": "",
          "type": "string"
        }
      ],
      "name": "activeVehicles",
      "outputs": [
        {
          "internalType": "bool",
          "name": "",
          "type": "bool"
        }
      ],
      "stateMutability": "view",
      "type": "function"
    },
    {
      "inputs": [
        {
          "internalType": "string",
          "name": "_plateNumber",
          "type": "string"
        }
      ],
      "name": "getVehicleEntries",
      "outputs": [
        {
          "components": [
            {
              "internalType": "address",
              "name": "owner",
              "type": "address"
            },
            {
              "internalType": "string",
              "name": "plateNumber",
              "type": "string"
            },
            {
              "internalType": "uint256",
              "name": "entryTimestamp",
              "type": "uint256"
            },
            {
              "internalType": "uint256",
              "name": "exitTimestamp",
              "type": "uint256"
            },
            {
              "internalType": "bool",
              "name": "isActive",
              "type": "bool"
            },
            {
              "internalType": "uint256",
              "name": "confidence",
              "type": "uint256"
            }
          ],
          "internalType": "struct VehicleRegistry.VehicleEntry[]",
          "name": "",
          "type": "tuple[]"
        }
      ],
      "stateMutability": "view",
      "type": "function"
    },
    {
      "inputs": [
        {
          "internalType": "string",
          "name": "_plateNumber",
          "type": "string"
        }
      ],
      "name": "isVehicleActive",
      "outputs": [
        {
          "internalType": "bool",
          "name": "",
          "type": "bool"
        }
      ],
      "stateMutability": "view",
      "type": "function"
    },
    {
      "inputs": [
        {
          "internalType": "string",
          "name": "_plateNumber",
          "type": "string"
        },
        {
          "internalType": "uint256",
          "name": "_confidence",
          "type": "uint256"
        }
      ],
      "name": "logVehicleEntry",
      "outputs": [
        {
          "internalType": "uint256",
          "name": "",
          "type": "uint256"
        }
      ],
      "stateMutability": "nonpayable",
      "type": "function"
    },
    {
      "inputs": [
        {
          "internalType": "string",
          "name": "_plateNumber",
          "type": "string"
        }
      ],
      "name": "logVehicleExit",
      "outputs": [],
      "stateMutability": "nonpayable",
      "type": "function"
    },
    {
      "inputs": [],
      "name": "owner",
      "outputs": [
        {
          "internalType": "address",
          "name": "",
          "type": "address"
        }
      ],
      "stateMutability": "view",
      "type": "function"
    },
    {
      "inputs": [
        {
          "internalType": "string",
          "name": "",
          "type": "string"
        },
        {
          "internalType": "uint256",
          "name": "",
          "type": "uint256"
        }
      ],
      "name": "vehicleEntries",
      "outputs": [
        {
          "internalType": "address",
          "name": "owner",
          "type": "address"
        },
        {
          "internalType": "string",
          "name": "plateNumber",
          "type": "string"
        },
        {
          "internalType": "uint256",
          "name": "entryTimestamp",
          "type": "uint256"
        },
        {
          "internalType": "uint256",
          "name": "exitTimestamp",
          "type": "uint256"
        },
        {
          "internalType": "bool",
          "name": "isActive",
          "type": "bool"
        },
        {
          "internalType": "uint256",
          "name": "confidence",
          "type": "uint256"
        }
      ],
      "stateMutability": "view",
      "type": "function"
    }
  ],
  "bytecode": "0x6080806040523461002857600280546001600160a01b03191633179055610a84908161002e8239f35b600080fdfe6040608081526004908136101561001557600080fd5b600091823560e01c8063449d8ddb14610765578063537d1d9e146105245780638da5cb5b1461073c5780639f56ff4d14610589578063a6b467eb14610524578063ed2ff2d9146103a85763eeb33dc31461006e57600080fd5b346103a45761007c366108c3565b92909381519480519060209560ff87830193610099818b876108f5565b890198888160019b8c8152030190205416610361578451976100ba89610813565b33895287890198838a528681019242845260608201878152608083019484865260a0840192835289518c81806100f48c8c519283916108f5565b81018c8152030190208054906801000000000000000082101561033c5790610120918782018155610918565b94909461034f575184546001600160a01b0319166001600160a01b03919091161784559b518051909c908585019067ffffffffffffffff811161033c57610167825461094a565b601f81116102f8575b508d9e8b9c9d9e9b508b908d601f841160011461028857926005969492819261024b9f9e9d9c9b9a9997959261027d575b5050600019600383901b1c191690881b1790555b5160028501555160038401558b8301945115159460ff199560ff878354169116179055519101558751858185516101ed81838a6108f5565b8101848152030190209182541617905585518681527fe7d0749d2aafd92b3a577d7ea0507e2b57696ff123da5b39ef69b6a74d28a17f61022f88830184610a29565b9142868201528033930390a285519384928392519283916108f5565b8101848152030190205460001981019390841161026a57505051908152f35b634e487b7160e01b825260119052602490fd5b0151905038806101a1565b8481528d8120929190601f198516905b8181106102e35750928a99989694919261024b9f9e9d9c9b938360059a9896106102ca575b505050811b0190556101b5565b015160001960f88460031b161c191690553880806102bd565b828401518555938b0193928f01928f01610298565b8e90838d52818d2090601f840160051c8201928410610332575b601f0160051c01905b8181106103285750610170565b8c8155880161031b565b9091508190610312565b634e487b7160e01b8b5260418d5260248bfd5b634e487b7160e01b8a52898c5260248afd5b845162461bcd60e51b8152808701889052601a60248201527f56656869636c6520616c726561647920696e207061726b696e670000000000006044820152606490fd5b8280fd5b5091903461052057602090816003193601126103a457833567ffffffffffffffff811161051c576103dc9036908601610867565b815160ff8251918581818601946103f48183886108f5565b810160018152030190205416156104e0578251848184516104168183876108f5565b8101888152030190205460001981019081116104cd57916104be916104a0868961047d88978b847ff78ae9400fac50060de50920a905045210f84e86b05247dc88f30928b73b80e99b5180928a5161046f81848d6108f5565b820190815203019020610918565b50426003820155019260ff199384815416905586518093819287519283916108f5565b81016001815203019020908154169055825192808452830190610a29565b9242908201528033930390a280f35b634e487b7160e01b865260118752602486fd5b825162461bcd60e51b8152808701859052601660248201527556656869636c65206e6f7420696e207061726b696e6760501b6044820152606490fd5b8380fd5b5080fd5b5091346105865760203660031901126105865782359067ffffffffffffffff82116105865750610571602061055f819560ff94369101610867565b818551938285809451938492016108f5565b81016001815203019020541690519015158152f35b80fd5b5082903461052057602090816003193601126103a45767ffffffffffffffff91813583811161073857816105c36105d59236908601610867565b818851938285809451938492016108f5565b8101878152030190209283549081116107255785519194926005906105fe83831b880185610845565b82845286840191829686528786209186935b8585106106b8575050505050508451938085019181865251809252858501868360051b8701019493965b8388106106475786860387f35b90919293948380600192603f198a820301865288519061067f60c0868060a01b03845116835284840151908086850152830190610a29565b9186810151878301526060808201519083015260808082015115159083015260a08091015191015297019301970196909392919361063a565b60068a6001928d809d9a9b9d51906106cf82610813565b858060a01b0389541682526106e5868a01610984565b848301526002890154908201526003880154606082015260ff8689015416151560808201528688015460a082015281520194019401939298969598610610565b634e487b7160e01b855260418352602485fd5b8480fd5b50503461052057816003193601126105205760025490516001600160a01b039091168152602090f35b5082346105865760209061078f61077b366108c3565b9390818751938285809451938492016108f5565b8101848152030190209081548310156105865750906107ad91610918565b509160018060a01b03835416916107c660018501610984565b93600281015491600560ff60038401549284015416920154926107fa8551978897885260c0602089015260c0880190610a29565b9486015260608501521515608084015260a08301520390f35b60c0810190811067ffffffffffffffff82111761082f57604052565b634e487b7160e01b600052604160045260246000fd5b90601f8019910116810190811067ffffffffffffffff82111761082f57604052565b81601f820112156108be5780359067ffffffffffffffff821161082f576040519261089c601f8401601f191660200185610845565b828452602083830101116108be57816000926020809301838601378301015290565b600080fd5b60406003198201126108be576004359067ffffffffffffffff82116108be576108ee91600401610867565b9060243590565b60005b8381106109085750506000910152565b81810151838201526020016108f8565b8054821015610934576000526006602060002091020190600090565b634e487b7160e01b600052603260045260246000fd5b90600182811c9216801561097a575b602083101461096457565b634e487b7160e01b600052602260045260246000fd5b91607f1691610959565b906040519182600082546109978161094a565b90818452602094600191600181169081600014610a0757506001146109c8575b5050506109c692500383610845565b565b600090815285812095935091905b8183106109ef5750506109c693508201013880806109b7565b855488840185015294850194879450918301916109d6565b925050506109c694925060ff191682840152151560051b8201013880806109b7565b90602091610a42815180928185528580860191016108f5565b601f01601f191601019056fea26469706673582212207215c677a945c948e1f452729b4fffae8b54ae81a6c21175a045ddf5d2f470ca64736f6c63430008180033",
  "linkReferences": {},
  "deployedLinkReferences": {}
}