{"blockchain/contracts/VehicleRegistry.sol":{"VehicleRegistry":{"abi":[{"inputs":[],"stateMutability":"nonpayable","type":"constructor"},{"anonymous":false,"inputs":[{"indexed":true,"internalType":"address","name":"owner","type":"address"},{"indexed":false,"internalType":"string","name":"plateNumber","type":"string"},{"indexed":false,"internalType":"uint256","name":"entryTimestamp","type":"uint256"}],"name":"VehicleEntered","type":"event"},{"anonymous":false,"inputs":[{"indexed":true,"internalType":"address","name":"owner","type":"address"},{"indexed":false,"internalType":"string","name":"plateNumber","type":"string"},{"indexed":false,"internalType":"uint256","name":"exitTimestamp","type":"uint256"}],"name":"VehicleExited","type":"event"},{"inputs":[{"internalType":"string","name":"","type":"string"}],"name":"activeVehicles","outputs":[{"internalType":"bool","name":"","type":"bool"}],"stateMutability":"view","type":"function"},{"inputs":[{"internalType":"string","name":"_plateNumber","type":"string"}],"name":"getVehicleEntries","outputs":[{"components":[{"internalType":"address","name":"owner","type":"address"},{"internalType":"string","name":"plateNumber","type":"string"},{"internalType":"uint256","name":"entryTimestamp","type":"uint256"},{"internalType":"uint256","name":"exitTimestamp","type":"uint256"},{"internalType":"bool","name":"isActive","type":"bool"},{"internalType":"uint256","name":"confidence","type":"uint256"}],"internalType":"struct VehicleRegistry.VehicleEntry[]","name":"","type":"tuple[]"}],"stateMutability":"view","type":"function"},{"inputs":[{"internalType":"string","name":"_plateNumber","type":"string"}],"name":"isVehicleActive","outputs":[{"internalType":"bool","name":"","type":"bool"}],"stateMutability":"view","type":"function"},{"inputs":[{"internalType":"string","name":"_plateNumber","type":"string"},{"internalType":"uint256","name":"_confidence","type":"uint256"}],"name":"logVehicleEntry","outputs":[{"internalType":"uint256","name":"","type":"uint256"}],"stateMutability":"nonpayable","type":"function"},{"inputs":[{"internalType":"string","name":"_plateNumber","type":"string"}],"name":"logVehicleExit","outputs":[],"stateMutability":"nonpayable","type":"function"},{"inputs":[],"name":"owner","outputs":[{"internalType":"address","name":"","type":"address"}],"stateMutability":"view","type":"function"},{"inputs":[{"internalType":"string","name":"","type":"string"},{"internalType":"uint256","name":"","type":"uint256"}],"name":"vehicleEntries","outputs":[{"internalType":"address","name":"owner","type":"address"},{"internalType":"string","name":"plateNumber","type":"string"},{"internalType":"uint256","name":"entryTimestamp","type":"uint256"},{"internalType":"uint256","name":"exitTimestamp","type":"uint256"},{"internalType":"bool","name":"isActive","type":"bool"},{"internalType":"uint256","name":"confidence","type":"uint256"}],"stateMutability":"view","type":"function"}],"evm":{"bytecode":{"linkReferences":{},"object":"6080806040523461002857600280546001600160a01b03191633179055610a84908161002e8239f35b600080fdfe6040608081526004908136101561001557600080fd5b600091823560e01c8063449d8ddb14610765578063537d1d9e146105245780638da5cb5b1461073c5780639f56ff4d14610589578063a6b467eb14610524578063ed2ff2d9146103a85763eeb33dc31461006e57600080fd5b346103a45761007c366108c3565b92909381519480519060209560ff87830193610099818b876108f5565b890198888160019b8c8152030190205416610361578451976100ba89610813565b33895287890198838a528681019242845260608201878152608083019484865260a0840192835289518c81806100f48c8c519283916108f5565b81018c8152030190208054906801000000000000000082101561033c5790610120918782018155610918565b94909461034f575184546001600160a01b0319166001600160a01b03919091161784559b518051909c908585019067ffffffffffffffff811161033c57610167825461094a565b601f81116102f8575b508d9e8b9c9d9e9b508b908d601f841160011461028857926005969492819261024b9f9e9d9c9b9a9997959261027d575b5050600019600383901b1c191690881b1790555b5160028501555160038401558b8301945115159460ff199560ff878354169116179055519101558751858185516101ed81838a6108f5565b8101848152030190209182541617905585518681527fe7d0749d2aafd92b3a577d7ea0507e2b57696ff123da5b39ef69b6a74d28a17f61022f88830184610a29565b9142868201528033930390a285519384928392519283916108f5565b8101848152030190205460001981019390841161026a57505051908152f35b634e487b7160e01b825260119052602490fd5b0151905038806101a1565b8481528d8120929190601f198516905b8181106102e35750928a99989694919261024b9f9e9d9c9b938360059a9896106102ca575b505050811b0190556101b5565b015160001960f88460031b161c191690553880806102bd565b828401518555938b0193928f01928f01610298565b8e90838d52818d2090601f840160051c8201928410610332575b601f0160051c01905b8181106103285750610170565b8c8155880161031b565b9091508190610312565b634e487b7160e01b8b5260418d5260248bfd5b634e487b7160e01b8a52898c5260248afd5b845162461bcd60e51b8152808701889052601a60248201527f56656869636c6520616c726561647920696e207061726b696e670000000000006044820152606490fd5b8280fd5b5091903461052057602090816003193601126103a457833567ffffffffffffffff811161051c576103dc9036908601610867565b815160ff8251918581818601946103f48183886108f5565b810160018152030190205416156104e0578251848184516104168183876108f5565b8101888152030190205460001981019081116104cd57916104be916104a0868961047d88978b847ff78ae9400fac50060de50920a905045210f84e86b05247dc88f30928b73b80e99b5180928a5161046f81848d6108f5565b820190815203019020610918565b50426003820155019260ff199384815416905586518093819287519283916108f5565b81016001815203019020908154169055825192808452830190610a29565b9242908201528033930390a280f35b634e487b7160e01b865260118752602486fd5b825162461bcd60e51b8152808701859052601660248201527556656869636c65206e6f7420696e207061726b696e6760501b6044820152606490fd5b8380fd5b5080fd5b5091346105865760203660031901126105865782359067ffffffffffffffff82116105865750610571602061055f819560ff94369101610867565b818551938285809451938492016108f5565b81016001815203019020541690519015158152f35b80fd5b5082903461052057602090816003193601126103a45767ffffffffffffffff91813583811161073857816105c36105d59236908601610867565b818851938285809451938492016108f5565b8101878152030190209283549081116107255785519194926005906105fe83831b880185610845565b82845286840191829686528786209186935b8585106106b8575050505050508451938085019181865251809252858501868360051b8701019493965b8388106106475786860387f35b90919293948380600192603f198a820301865288519061067f60c0868060a01b03845116835284840151908086850152830190610a29565b9186810151878301526060808201519083015260808082015115159083015260a08091015191015297019301970196909392919361063a565b60068a6001928d809d9a9b9d51906106cf82610813565b858060a01b0389541682526106e5868a01610984565b848301526002890154908201526003880154606082015260ff8689015416151560808201528688015460a082015281520194019401939298969598610610565b634e487b7160e01b855260418352602485fd5b8480fd5b50503461052057816003193601126105205760025490516001600160a01b039091168152602090f35b5082346105865760209061078f61077b366108c3565b9390818751938285809451938492016108f5565b8101848152030190209081548310156105865750906107ad91610918565b509160018060a01b03835416916107c660018501610984565b93600281015491600560ff60038401549284015416920154926107fa8551978897885260c0602089015260c0880190610a29565b9486015260608501521515608084015260a08301520390f35b60c0810190811067ffffffffffffffff82111761082f57604052565b634e487b7160e01b600052604160045260246000fd5b90601f8019910116810190811067ffffffffffffffff82111761082f57604052565b81601f820112156108be5780359067ffffffffffffffff821161082f576040519261089c601f8401601f191660200185610845565b828452602083830101116108be57816000926020809301838601378301015290565b600080fd5b60406003198201126108be576004359067ffffffffffffffff82116108be576108ee91600401610867565b9060243590565b60005b8381106109085750506000910152565b81810151838201526020016108f8565b8054821015610934576000526006602060002091020190600090565b634e487b7160e01b600052603260045260246000fd5b90600182811c9216801561097a575b602083101461096457565b634e487b7160e01b600052602260045260246000fd5b91607f1691610959565b906040519182600082546109978161094a565b90818452602094600191600181169081600014610a0757506001146109c8575b5050506109c692500383610845565b565b600090815285812095935091905b8183106109ef5750506109c693508201013880806109b7565b855488840185015294850194879450918301916109d6565b925050506109c694925060ff191682840152151560051b8201013880806109b7565b90602091610a42815180928185528580860191016108f5565b601f01601f191601019056fea26469706673582212207215c677a945c948e1f452729b4fffae8b54ae81a6c21175a045ddf5d2f470ca64736f6c63430008180033","opcodes":"PUSH1 0x80 DUP1 PUSH1 0x40 MSTORE CALLVALUE PUSH2 0x28 JUMPI PUSH1 0x2 DUP1 SLOAD PUSH1 0x1 PUSH1 0x1 PUSH1 0xA0 SHL SUB NOT AND CALLER OR SWAP1 SSTORE PUSH2 0xA84 SWAP1 DUP2 PUSH2 0x2E DUP3 CODECOPY RETURN JUMPDEST PUSH1 0x0 DUP1 REVERT INVALID PUSH1 0x40 PUSH1 0x80 DUP2 MSTORE PUSH1 0x4 SWAP1 DUP2 CALLDATASIZE LT ISZERO PUSH2 0x15 JUMPI PUSH1 0x0 DUP1 REVERT JUMPDEST PUSH1 0x0 SWAP2 DUP3 CALLDATALOAD PUSH1 0xE0 SHR DUP1 PUSH4 0x449D8DDB EQ PUSH2 0x765 JUMPI DUP1 PUSH4 0x537D1D9E EQ PUSH2 0x524 JUMPI DUP1 PUSH4 0x8DA5CB5B EQ PUSH2 0x73C JUMPI DUP1 PUSH4 0x9F56FF4D EQ PUSH2 0x589 JUMPI DUP1 PUSH4 0xA6B467EB EQ PUSH2 0x524 JUMPI DUP1 PUSH4 0xED2FF2D9 EQ PUSH2 0x3A8 JUMPI PUSH4 0xEEB33DC3 EQ PUSH2 0x6E JUMPI PUSH1 0x0 DUP1 REVERT JUMPDEST CALLVALUE PUSH2 0x3A4 JUMPI PUSH2 0x7C CALLDATASIZE PUSH2 0x8C3 JUMP JUMPDEST SWAP3 SWAP1 SWAP4 DUP2 MLOAD SWAP5 DUP1 MLOAD SWAP1 PUSH1 0x20 SWAP6 PUSH1 0xFF DUP8 DUP4 ADD SWAP4 PUSH2 0x99 DUP2 DUP12 DUP8 PUSH2 0x8F5 JUMP JUMPDEST DUP10 ADD SWAP9 DUP9 DUP2 PUSH1 0x1 SWAP12 DUP13 DUP2 MSTORE SUB ADD SWAP1 KECCAK256 SLOAD AND PUSH2 0x361 JUMPI DUP5 MLOAD SWAP8 PUSH2 0xBA DUP10 PUSH2 0x813 JUMP JUMPDEST CALLER DUP10 MSTORE DUP8 DUP10 ADD SWAP9 DUP4 DUP11 MSTORE DUP7 DUP2 ADD SWAP3 TIMESTAMP DUP5 MSTORE PUSH1 0x60 DUP3 ADD DUP8 DUP2 MSTORE PUSH1 0x80 DUP4 ADD SWAP5 DUP5 DUP7 MSTORE PUSH1 0xA0 DUP5 ADD SWAP3 DUP4 MSTORE DUP10 MLOAD DUP13 DUP2 DUP1 PUSH2 0xF4 DUP13 DUP13 MLOAD SWAP3 DUP4 SWAP2 PUSH2 0x8F5 JUMP JUMPDEST DUP2 ADD DUP13 DUP2 MSTORE SUB ADD SWAP1 KECCAK256 DUP1 SLOAD SWAP1 PUSH9 0x10000000000000000 DUP3 LT ISZERO PUSH2 0x33C JUMPI SWAP1 PUSH2 0x120 SWAP2 DUP8 DUP3 ADD DUP2 SSTORE PUSH2 0x918 JUMP JUMPDEST SWAP5 SWAP1 SWAP5 PUSH2 0x34F JUMPI MLOAD DUP5 SLOAD PUSH1 0x1 PUSH1 0x1 PUSH1 0xA0 SHL SUB NOT AND PUSH1 0x1 PUSH1 0x1 PUSH1 0xA0 SHL SUB SWAP2 SWAP1 SWAP2 AND OR DUP5 SSTORE SWAP12 MLOAD DUP1 MLOAD SWAP1 SWAP13 SWAP1 DUP6 DUP6 ADD SWAP1 PUSH8 0xFFFFFFFFFFFFFFFF DUP2 GT PUSH2 0x33C JUMPI PUSH2 0x167 DUP3 SLOAD PUSH2 0x94A JUMP JUMPDEST PUSH1 0x1F DUP2 GT PUSH2 0x2F8 JUMPI JUMPDEST POP DUP14 SWAP15 DUP12 SWAP13 SWAP14 SWAP15 SWAP12 POP DUP12 SWAP1 DUP14 PUSH1 0x1F DUP5 GT PUSH1 0x1 EQ PUSH2 0x288 JUMPI SWAP3 PUSH1 0x5 SWAP7 SWAP5 SWAP3 DUP2 SWAP3 PUSH2 0x24B SWAP16 SWAP15 SWAP14 SWAP13 SWAP12 SWAP11 SWAP10 SWAP8 SWAP6 SWAP3 PUSH2 0x27D JUMPI JUMPDEST POP POP PUSH1 0x0 NOT PUSH1 0x3 DUP4 SWAP1 SHL SHR NOT AND SWAP1 DUP9 SHL OR SWAP1 SSTORE JUMPDEST MLOAD PUSH1 0x2 DUP6 ADD SSTORE MLOAD PUSH1 0x3 DUP5 ADD SSTORE DUP12 DUP4 ADD SWAP5 MLOAD ISZERO ISZERO SWAP5 PUSH1 0xFF NOT SWAP6 PUSH1 0xFF DUP8 DUP4 SLOAD AND SWAP2 AND OR SWAP1 SSTORE MLOAD SWAP2 ADD SSTORE DUP8 MLOAD DUP6 DUP2 DUP6 MLOAD PUSH2 0x1ED DUP2 DUP4 DUP11 PUSH2 0x8F5 JUMP JUMPDEST DUP2 ADD DUP5 DUP2 MSTORE SUB ADD SWAP1 KECCAK256 SWAP2 DUP3 SLOAD AND OR SWAP1 SSTORE DUP6 MLOAD DUP7 DUP2 MSTORE PUSH32 0xE7D0749D2AAFD92B3A577D7EA0507E2B57696FF123DA5B39EF69B6A74D28A17F PUSH2 0x22F DUP9 DUP4 ADD DUP5 PUSH2 0xA29 JUMP JUMPDEST SWAP2 TIMESTAMP DUP7 DUP3 ADD MSTORE DUP1 CALLER SWAP4 SUB SWAP1 LOG2 DUP6 MLOAD SWAP4 DUP5 SWAP3 DUP4 SWAP3 MLOAD SWAP3 DUP4 SWAP2 PUSH2 0x8F5 JUMP JUMPDEST DUP2 ADD DUP5 DUP2 MSTORE SUB ADD SWAP1 KECCAK256 SLOAD PUSH1 0x0 NOT DUP2 ADD SWAP4 SWAP1 DUP5 GT PUSH2 0x26A JUMPI POP POP MLOAD SWAP1 DUP2 MSTORE RETURN JUMPDEST PUSH4 0x4E487B71 PUSH1 0xE0 SHL DUP3 MSTORE PUSH1 0x11 SWAP1 MSTORE PUSH1 0x24 SWAP1 REVERT JUMPDEST ADD MLOAD SWAP1 POP CODESIZE DUP1 PUSH2 0x1A1 JUMP JUMPDEST DUP5 DUP2 MSTORE DUP14 DUP2 KECCAK256 SWAP3 SWAP2 SWAP1 PUSH1 0x1F NOT DUP6 AND SWAP1 JUMPDEST DUP2 DUP2 LT PUSH2 0x2E3 JUMPI POP SWAP3 DUP11 SWAP10 SWAP9 SWAP7 SWAP5 SWAP2 SWAP3 PUSH2 0x24B SWAP16 SWAP15 SWAP14 SWAP13 SWAP12 SWAP4 DUP4 PUSH1 0x5 SWAP11 SWAP9 SWAP7 LT PUSH2 0x2CA JUMPI JUMPDEST POP POP POP DUP2 SHL ADD SWAP1 SSTORE PUSH2 0x1B5 JUMP JUMPDEST ADD MLOAD PUSH1 0x0 NOT PUSH1 0xF8 DUP5 PUSH1 0x3 SHL AND SHR NOT AND SWAP1 SSTORE CODESIZE DUP1 DUP1 PUSH2 0x2BD JUMP JUMPDEST DUP3 DUP5 ADD MLOAD DUP6 SSTORE SWAP4 DUP12 ADD SWAP4 SWAP3 DUP16 ADD SWAP3 DUP16 ADD PUSH2 0x298 JUMP JUMPDEST DUP15 SWAP1 DUP4 DUP14 MSTORE DUP2 DUP14 KECCAK256 SWAP1 PUSH1 0x1F DUP5 ADD PUSH1 0x5 SHR DUP3 ADD SWAP3 DUP5 LT PUSH2 0x332 JUMPI JUMPDEST PUSH1 0x1F ADD PUSH1 0x5 SHR ADD SWAP1 JUMPDEST DUP2 DUP2 LT PUSH2 0x328 JUMPI POP PUSH2 0x170 JUMP JUMPDEST DUP13 DUP2 SSTORE DUP9 ADD PUSH2 0x31B JUMP JUMPDEST SWAP1 SWAP2 POP DUP2 SWAP1 PUSH2 0x312 JUMP JUMPDEST PUSH4 0x4E487B71 PUSH1 0xE0 SHL DUP12 MSTORE PUSH1 0x41 DUP14 MSTORE PUSH1 0x24 DUP12 REVERT JUMPDEST PUSH4 0x4E487B71 PUSH1 0xE0 SHL DUP11 MSTORE DUP10 DUP13 MSTORE PUSH1 0x24 DUP11 REVERT JUMPDEST DUP5 MLOAD PUSH3 0x461BCD PUSH1 0xE5 SHL DUP2 MSTORE DUP1 DUP8 ADD DUP9 SWAP1 MSTORE PUSH1 0x1A PUSH1 0x24 DUP3 ADD MSTORE PUSH32 0x56656869636C6520616C726561647920696E207061726B696E67000000000000 PUSH1 0x44 DUP3 ADD MSTORE PUSH1 0x64 SWAP1 REVERT JUMPDEST DUP3 DUP1 REVERT JUMPDEST POP SWAP2 SWAP1 CALLVALUE PUSH2 0x520 JUMPI PUSH1 0x20 SWAP1 DUP2 PUSH1 0x3 NOT CALLDATASIZE ADD SLT PUSH2 0x3A4 JUMPI DUP4 CALLDATALOAD PUSH8 0xFFFFFFFFFFFFFFFF DUP2 GT PUSH2 0x51C JUMPI PUSH2 0x3DC SWAP1 CALLDATASIZE SWAP1 DUP7 ADD PUSH2 0x867 JUMP JUMPDEST DUP2 MLOAD PUSH1 0xFF DUP3 MLOAD SWAP2 DUP6 DUP2 DUP2 DUP7 ADD SWAP5 PUSH2 0x3F4 DUP2 DUP4 DUP9 PUSH2 0x8F5 JUMP JUMPDEST DUP2 ADD PUSH1 0x1 DUP2 MSTORE SUB ADD SWAP1 KECCAK256 SLOAD AND ISZERO PUSH2 0x4E0 JUMPI DUP3 MLOAD DUP5 DUP2 DUP5 MLOAD PUSH2 0x416 DUP2 DUP4 DUP8 PUSH2 0x8F5 JUMP JUMPDEST DUP2 ADD DUP9 DUP2 MSTORE SUB ADD SWAP1 KECCAK256 SLOAD PUSH1 0x0 NOT DUP2 ADD SWAP1 DUP2 GT PUSH2 0x4CD JUMPI SWAP2 PUSH2 0x4BE SWAP2 PUSH2 0x4A0 DUP7 DUP10 PUSH2 0x47D DUP9 SWAP8 DUP12 DUP5 PUSH32 0xF78AE9400FAC50060DE50920A905045210F84E86B05247DC88F30928B73B80E9 SWAP12 MLOAD DUP1 SWAP3 DUP11 MLOAD PUSH2 0x46F DUP2 DUP5 DUP14 PUSH2 0x8F5 JUMP JUMPDEST DUP3 ADD SWAP1 DUP2 MSTORE SUB ADD SWAP1 KECCAK256 PUSH2 0x918 JUMP JUMPDEST POP TIMESTAMP PUSH1 0x3 DUP3 ADD SSTORE ADD SWAP3 PUSH1 0xFF NOT SWAP4 DUP5 DUP2 SLOAD AND SWAP1 SSTORE DUP7 MLOAD DUP1 SWAP4 DUP2 SWAP3 DUP8 MLOAD SWAP3 DUP4 SWAP2 PUSH2 0x8F5 JUMP JUMPDEST DUP2 ADD PUSH1 0x1 DUP2 MSTORE SUB ADD SWAP1 KECCAK256 SWAP1 DUP2 SLOAD AND SWAP1 SSTORE DUP3 MLOAD SWAP3 DUP1 DUP5 MSTORE DUP4 ADD SWAP1 PUSH2 0xA29 JUMP JUMPDEST SWAP3 TIMESTAMP SWAP1 DUP3 ADD MSTORE DUP1 CALLER SWAP4 SUB SWAP1 LOG2 DUP1 RETURN JUMPDEST PUSH4 0x4E487B71 PUSH1 0xE0 SHL DUP7 MSTORE PUSH1 0x11 DUP8 MSTORE PUSH1 0x24 DUP7 REVERT JUMPDEST DUP3 MLOAD PUSH3 0x461BCD PUSH1 0xE5 SHL DUP2 MSTORE DUP1 DUP8 ADD DUP6 SWAP1 MSTORE PUSH1 0x16 PUSH1 0x24 DUP3 ADD MSTORE PUSH22 0x56656869636C65206E6F7420696E207061726B696E67 PUSH1 0x50 SHL PUSH1 0x44 DUP3 ADD MSTORE PUSH1 0x64 SWAP1 REVERT JUMPDEST DUP4 DUP1 REVERT JUMPDEST POP DUP1 REVERT JUMPDEST POP SWAP2 CALLVALUE PUSH2 0x586 JUMPI PUSH1 0x20 CALLDATASIZE PUSH1 0x3 NOT ADD SLT PUSH2 0x586 JUMPI DUP3 CALLDATALOAD SWAP1 PUSH8 0xFFFFFFFFFFFFFFFF DUP3 GT PUSH2 0x586 JUMPI POP PUSH2 0x571 PUSH1 0x20 PUSH2 0x55F DUP2 SWAP6 PUSH1 0xFF SWAP5 CALLDATASIZE SWAP2 ADD PUSH2 0x867 JUMP JUMPDEST DUP2 DUP6 MLOAD SWAP4 DUP3 DUP6 DUP1 SWAP5 MLOAD SWAP4 DUP5 SWAP3 ADD PUSH2 0x8F5 JUMP JUMPDEST DUP2 ADD PUSH1 0x1 DUP2 MSTORE SUB ADD SWAP1 KECCAK256 SLOAD AND SWAP1 MLOAD SWAP1 ISZERO ISZERO DUP2 MSTORE RETURN JUMPDEST DUP1 REVERT JUMPDEST POP DUP3 SWAP1 CALLVALUE PUSH2 0x520 JUMPI PUSH1 0x20 SWAP1 DUP2 PUSH1 0x3 NOT CALLDATASIZE ADD SLT PUSH2 0x3A4 JUMPI PUSH8 0xFFFFFFFFFFFFFFFF SWAP2 DUP2 CALLDATALOAD DUP4 DUP2 GT PUSH2 0x738 JUMPI DUP2 PUSH2 0x5C3 PUSH2 0x5D5 SWAP3 CALLDATASIZE SWAP1 DUP7 ADD PUSH2 0x867 JUMP JUMPDEST DUP2 DUP9 MLOAD SWAP4 DUP3 DUP6 DUP1 SWAP5 MLOAD SWAP4 DUP5 SWAP3 ADD PUSH2 0x8F5 JUMP JUMPDEST DUP2 ADD DUP8 DUP2 MSTORE SUB ADD SWAP1 KECCAK256 SWAP3 DUP4 SLOAD SWAP1 DUP2 GT PUSH2 0x725 JUMPI DUP6 MLOAD SWAP2 SWAP5 SWAP3 PUSH1 0x5 SWAP1 PUSH2 0x5FE DUP4 DUP4 SHL DUP9 ADD DUP6 PUSH2 0x845 JUMP JUMPDEST DUP3 DUP5 MSTORE DUP7 DUP5 ADD SWAP2 DUP3 SWAP7 DUP7 MSTORE DUP8 DUP7 KECCAK256 SWAP2 DUP7 SWAP4 JUMPDEST DUP6 DUP6 LT PUSH2 0x6B8 JUMPI POP POP POP POP POP POP DUP5 MLOAD SWAP4 DUP1 DUP6 ADD SWAP2 DUP2 DUP7 MSTORE MLOAD DUP1 SWAP3 MSTORE DUP6 DUP6 ADD DUP7 DUP4 PUSH1 0x5 SHL DUP8 ADD ADD SWAP5 SWAP4 SWAP7 JUMPDEST DUP4 DUP9 LT PUSH2 0x647 JUMPI DUP7 DUP7 SUB DUP8 RETURN JUMPDEST SWAP1 SWAP2 SWAP3 SWAP4 SWAP5 DUP4 DUP1 PUSH1 0x1 SWAP3 PUSH1 0x3F NOT DUP11 DUP3 SUB ADD DUP7 MSTORE DUP9 MLOAD SWAP1 PUSH2 0x67F PUSH1 0xC0 DUP7 DUP1 PUSH1 0xA0 SHL SUB DUP5 MLOAD AND DUP4 MSTORE DUP5 DUP5 ADD MLOAD SWAP1 DUP1 DUP7 DUP6 ADD MSTORE DUP4 ADD SWAP1 PUSH2 0xA29 JUMP JUMPDEST SWAP2 DUP7 DUP2 ADD MLOAD DUP8 DUP4 ADD MSTORE PUSH1 0x60 DUP1 DUP3 ADD MLOAD SWAP1 DUP4 ADD MSTORE PUSH1 0x80 DUP1 DUP3 ADD MLOAD ISZERO ISZERO SWAP1 DUP4 ADD MSTORE PUSH1 0xA0 DUP1 SWAP2 ADD MLOAD SWAP2 ADD MSTORE SWAP8 ADD SWAP4 ADD SWAP8 ADD SWAP7 SWAP1 SWAP4 SWAP3 SWAP2 SWAP4 PUSH2 0x63A JUMP JUMPDEST PUSH1 0x6 DUP11 PUSH1 0x1 SWAP3 DUP14 DUP1 SWAP14 SWAP11 SWAP12 SWAP14 MLOAD SWAP1 PUSH2 0x6CF DUP3 PUSH2 0x813 JUMP JUMPDEST DUP6 DUP1 PUSH1 0xA0 SHL SUB DUP10 SLOAD AND DUP3 MSTORE PUSH2 0x6E5 DUP7 DUP11 ADD PUSH2 0x984 JUMP JUMPDEST DUP5 DUP4 ADD MSTORE PUSH1 0x2 DUP10 ADD SLOAD SWAP1 DUP3 ADD MSTORE PUSH1 0x3 DUP9 ADD SLOAD PUSH1 0x60 DUP3 ADD MSTORE PUSH1 0xFF DUP7 DUP10 ADD SLOAD AND ISZERO ISZERO PUSH1 0x80 DUP3 ADD MSTORE DUP7 DUP9 ADD SLOAD PUSH1 0xA0 DUP3 ADD MSTORE DUP2 MSTORE ADD SWAP5 ADD SWAP5 ADD SWAP4 SWAP3 SWAP9 SWAP7 SWAP6 SWAP9 PUSH2 0x610 JUMP JUMPDEST PUSH4 0x4E487B71 PUSH1 0xE0 SHL DUP6 MSTORE PUSH1 0x41 DUP4 MSTORE PUSH1 0x24 DUP6 REVERT JUMPDEST DUP5 DUP1 REVERT JUMPDEST POP POP CALLVALUE PUSH2 0x520 JUMPI DUP2 PUSH1 0x3 NOT CALLDATASIZE ADD SLT PUSH2 0x520 JUMPI PUSH1 0x2 SLOAD SWAP1 MLOAD PUSH1 0x1 PUSH1 0x1 PUSH1 0xA0 SHL SUB SWAP1 SWAP2 AND DUP2 MSTORE PUSH1 0x20 SWAP1 RETURN JUMPDEST POP DUP3 CALLVALUE PUSH2 0x586 JUMPI PUSH1 0x20 SWAP1 PUSH2 0x78F PUSH2 0x77B CALLDATASIZE PUSH2 0x8C3 JUMP JUMPDEST SWAP4 SWAP1 DUP2 DUP8 MLOAD SWAP4 DUP3 DUP6 DUP1 SWAP5 MLOAD SWAP4 DUP5 SWAP3 ADD PUSH2 0x8F5 JUMP JUMPDEST DUP2 ADD DUP5 DUP2 MSTORE SUB ADD SWAP1 KECCAK256 SWAP1 DUP2 SLOAD DUP4 LT ISZERO PUSH2 0x586 JUMPI POP SWAP1 PUSH2 0x7AD SWAP2 PUSH2 0x918 JUMP JUMPDEST POP SWAP2 PUSH1 0x1 DUP1 PUSH1 0xA0 SHL SUB DUP4 SLOAD AND SWAP2 PUSH2 0x7C6 PUSH1 0x1 DUP6 ADD PUSH2 0x984 JUMP JUMPDEST SWAP4 PUSH1 0x2 DUP2 ADD SLOAD SWAP2 PUSH1 0x5 PUSH1 0xFF PUSH1 0x3 DUP5 ADD SLOAD SWAP3 DUP5 ADD SLOAD AND SWAP3 ADD SLOAD SWAP3 PUSH2 0x7FA DUP6 MLOAD SWAP8 DUP9 SWAP8 DUP9 MSTORE PUSH1 0xC0 PUSH1 0x20 DUP10 ADD MSTORE PUSH1 0xC0 DUP9 ADD SWAP1 PUSH2 0xA29 JUMP JUMPDEST SWAP5 DUP7 ADD MSTORE PUSH1 0x60 DUP6 ADD MSTORE ISZERO ISZERO PUSH1 0x80 DUP5 ADD MSTORE PUSH1 0xA0 DUP4 ADD MSTORE SUB SWAP1 RETURN JUMPDEST PUSH1 0xC0 DUP2 ADD SWAP1 DUP2 LT PUSH8 0xFFFFFFFFFFFFFFFF DUP3 GT OR PUSH2 0x82F JUMPI PUSH1 0x40 MSTORE JUMP JUMPDEST PUSH4 0x4E487B71 PUSH1 0xE0 SHL PUSH1 0x0 MSTORE PUSH1 0x41 PUSH1 0x4 MSTORE PUSH1 0x24 PUSH1 0x0 REVERT JUMPDEST SWAP1 PUSH1 0x1F DUP1 NOT SWAP2 ADD AND DUP2 ADD SWAP1 DUP2 LT PUSH8 0xFFFFFFFFFFFFFFFF DUP3 GT OR PUSH2 0x82F JUMPI PUSH1 0x40 MSTORE JUMP JUMPDEST DUP2 PUSH1 0x1F DUP3 ADD SLT ISZERO PUSH2 0x8BE JUMPI DUP1 CALLDATALOAD SWAP1 PUSH8 0xFFFFFFFFFFFFFFFF DUP3 GT PUSH2 0x82F JUMPI PUSH1 0x40 MLOAD SWAP3 PUSH2 0x89C PUSH1 0x1F DUP5 ADD PUSH1 0x1F NOT AND PUSH1 0x20 ADD DUP6 PUSH2 0x845 JUMP JUMPDEST DUP3 DUP5 MSTORE PUSH1 0x20 DUP4 DUP4 ADD ADD GT PUSH2 0x8BE JUMPI DUP2 PUSH1 0x0 SWAP3 PUSH1 0x20 DUP1 SWAP4 ADD DUP4 DUP7 ADD CALLDATACOPY DUP4 ADD ADD MSTORE SWAP1 JUMP JUMPDEST PUSH1 0x0 DUP1 REVERT JUMPDEST PUSH1 0x40 PUSH1 0x3 NOT DUP3 ADD SLT PUSH2 0x8BE JUMPI PUSH1 0x4 CALLDATALOAD SWAP1 PUSH8 0xFFFFFFFFFFFFFFFF DUP3 GT PUSH2 0x8BE JUMPI PUSH2 0x8EE SWAP2 PUSH1 0x4 ADD PUSH2 0x867 JUMP JUMPDEST SWAP1 PUSH1 0x24 CALLDATALOAD SWAP1 JUMP JUMPDEST PUSH1 0x0 JUMPDEST DUP4 DUP2 LT PUSH2 0x908 JUMPI POP POP PUSH1 0x0 SWAP2 ADD MSTORE JUMP JUMPDEST DUP2 DUP2 ADD MLOAD DUP4 DUP3 ADD MSTORE PUSH1 0x20 ADD PUSH2 0x8F8 JUMP JUMPDEST DUP1 SLOAD DUP3 LT ISZERO PUSH2 0x934 JUMPI PUSH1 0x0 MSTORE PUSH1 0x6 PUSH1 0x20 PUSH1 0x0 KECCAK256 SWAP2 MUL ADD SWAP1 PUSH1 0x0 SWAP1 JUMP JUMPDEST PUSH4 0x4E487B71 PUSH1 0xE0 SHL PUSH1 0x0 MSTORE PUSH1 0x32 PUSH1 0x4 MSTORE PUSH1 0x24 PUSH1 0x0 REVERT JUMPDEST SWAP1 PUSH1 0x1 DUP3 DUP2 SHR SWAP3 AND DUP1 ISZERO PUSH2 0x97A JUMPI JUMPDEST PUSH1 0x20 DUP4 LT EQ PUSH2 0x964 JUMPI JUMP JUMPDEST PUSH4 0x4E487B71 PUSH1 0xE0 SHL PUSH1 0x0 MSTORE PUSH1 0x22 PUSH1 0x4 MSTORE PUSH1 0x24 PUSH1 0x0 REVERT JUMPDEST SWAP2 PUSH1 0x7F AND SWAP2 PUSH2 0x959 JUMP JUMPDEST SWAP1 PUSH1 0x40 MLOAD SWAP2 DUP3 PUSH1 0x0 DUP3 SLOAD PUSH2 0x997 DUP2 PUSH2 0x94A JUMP JUMPDEST SWAP1 DUP2 DUP5 MSTORE PUSH1 0x20 SWAP5 PUSH1 0x1 SWAP2 PUSH1 0x1 DUP2 AND SWAP1 DUP2 PUSH1 0x0 EQ PUSH2 0xA07 JUMPI POP PUSH1 0x1 EQ PUSH2 0x9C8 JUMPI JUMPDEST POP POP POP PUSH2 0x9C6 SWAP3 POP SUB DUP4 PUSH2 0x845 JUMP JUMPDEST JUMP JUMPDEST PUSH1 0x0 SWAP1 DUP2 MSTORE DUP6 DUP2 KECCAK256 SWAP6 SWAP4 POP SWAP2 SWAP1 JUMPDEST DUP2 DUP4 LT PUSH2 0x9EF JUMPI POP POP PUSH2 0x9C6 SWAP4 POP DUP3 ADD ADD CODESIZE DUP1 DUP1 PUSH2 0x9B7 JUMP JUMPDEST DUP6 SLOAD DUP9 DUP5 ADD DUP6 ADD MSTORE SWAP5 DUP6 ADD SWAP5 DUP8 SWAP5 POP SWAP2 DUP4 ADD SWAP2 PUSH2 0x9D6 JUMP JUMPDEST SWAP3 POP POP POP PUSH2 0x9C6 SWAP5 SWAP3 POP PUSH1 0xFF NOT AND DUP3 DUP5 ADD MSTORE ISZERO ISZERO PUSH1 0x5 SHL DUP3 ADD ADD CODESIZE DUP1 DUP1 PUSH2 0x9B7 JUMP JUMPDEST SWAP1 PUSH1 0x20 SWAP2 PUSH2 0xA42 DUP2 MLOAD DUP1 SWAP3 DUP2 DUP6 MSTORE DUP6 DUP1 DUP7 ADD SWAP2 ADD PUSH2 0x8F5 JUMP JUMPDEST PUSH1 0x1F ADD PUSH1 0x1F NOT AND ADD ADD SWAP1 JUMP INVALID LOG2 PUSH5 0x6970667358 0x22 SLT KECCAK256 PUSH19 0x15C677A945C948E1F452729B4FFFAE8B54AE81 0xA6 0xC2 GT PUSH22 0xA045DDF5D2F470CA64736F6C63430008180033000000 "},"methodIdentifiers":{"activeVehicles(string)":"537d1d9e","getVehicleEntries(string)":"9f56ff4d","isVehicleActive(string)":"a6b467eb","logVehicleEntry(string,uint256)":"eeb33dc3","logVehicleExit(string)":"ed2ff2d9","owner()":"8da5cb5b","vehicleEntries(string,uint256)":"449d8ddb"}}}}}